:02000000AF2D22
:0E000600213083120313FD00FD0B07280800B4
:100014000F3083120313FC004730FD00FD0B102842
:0A002400FC0B10280000000008008B
:06002E00000000000800C4
:10003400FB14FB1F2428FF30F300F200F100F00052
:08004400FA0DF20CFF30080078
:10004C0083160313A41B2D28831286112F288312C9
:10005C0086158316241B3528831206113728831224
:10006C0006158316A41A3D28831286103F28831286
:10007C0086148316241A45288312061047288312E7
:10008C00061452184B2806164C28061286161720F2
:10009C0086128316A41955288312861157288312A9
:1000AC008615831624195D28831206115F28831286
:1000BC0006158316A41865288312861067288312E8
:1000CC008614831624186D28831206106F28831249
:1000DC000614521873280616742806128616172052
:0E00EC008612521C7B280A207C280320080064
:0E00FA00F201F101F001F801F30100300800FD
:08010800FA1FF2130030080099
:100110007B15FB1F92280130F300F201F101F00181
:08012000FA0DF20CFF3008009B
:1001280083120313FB01FA01F9018030F800F10C86
:10013800F00C031CA8287408F90775080318750F34
:10014800FA070318FB0A0310F01FB0287408FA070F
:1001580075080318750FFB07FB0CFA0CF90CF80C63
:10016800031C9B287B08F3007A08F2007908F10049
:060178007808F000080009
:10017E00A0017208031DD4287108F2007008F10066
:10018E00F001A0157208031DD4287108F200F101C8
:10019E00A011201672080319E2282008F302031D8D
:1001AE00031CE6280310F21BEA28F00DF10DF20DE8
:1001BE00F30BDA28E6280130FC007D20ED28023012
:0E01CE00FC008820ED280430FC00842008008E
:0E01DC008312031351088A00500882000800A5
:1001EA0083120313521083162208A40026205214E5
:0201FA000800FB
:1001FC00831603132208F2007208F100F20A230896
:10020C00F000A30A700884000008F0007108840054
:10021C00700880007108840000080319162902294F
:06022C002208F0000800AA
:1002320083120313FA017308031D7A147708031D4E
:10024200FA147A0803196529033A031930297A182E
:100252002D29F61F63296129F21F6129632972087A
:100262008039FA00F21376088039F6137A060319F8
:100272003E297A0803196129632977087302031951
:100282004529031C59295D297608720203194C2954
:10029200031C59295D297508710203195329031C8E
:1002A20059295D29740870020319652903185D290B
:1002B200FA08031963296129FA08031961296329D4
:1002C20003140800031008000314031508000800B3
:1002D20083120313FB017308031D77080319C02956
:1002E20072087606FA007708F3077E30031C7D2930
:1002F200F3020318C3298029F302031CC6297208DA
:10030200F8007108FC007008FD00F817F6170310DA
:10031200F201F101F0011830A0007D1C9A29740845
:10032200F00775080318750FF10776080318760FA2
:10033200F207F20CF10CF00CF80CFC0CFD0C0310A3
:10034200A00B8E29F21BAA29F80DF00DF10DF20D6A
:10035200F3037B1B701CBC29F81FBC29F00A03198C
:10036200F10A0319F20A031DBC29F20CF10CF00C7C
:10037200F30A0319C329FA1FF2130030C829013006
:100382007D20C82902301A20C829043088200000A4
:02039200080061
:1003940083120313FD01F801700803190034740675
:1003A400FA00FA1BFD09FB01F41FDA29F409F40A27
:1003B400F01FDE29F009F00A70087404FA00FA1B31
:1003C400022A7408F802F00D700DF80D7408F8078D
:1003D400F00D0630FC00700DF80D74087018F8026A
:1003E400701CF807F00DFC0BED29701CF8077B1846
:1003F400102AFD1F0034F009F00AF809F80A003445
:10040400F41F0D2AF01B0A2A7008F800F001FB29DA
:10041400F001F00A0034F009FB0AE329F80A740831
:100424007802031DFB29F801F00AF01FFB29FF34B1
:020434000800BE
:100436000E3083120313FD00FD0B1F2A0000080077
:10044600831603130711831212150C309704080044
:0C0456008312031395011712971208007F
:1004620083160313A001A10183126508EC0066083C
:10047200ED006708EE006808EF006F08FF3A031D01
:100482004C2A6E08FF3A031D4C2A6D08FF3A031DE1
:100492004C2A6C08FF3A031D572A69088316A200EA
:1004A2003630A300FE200330F0004D2C01308312C1
:1004B200EA00EE1F672A80306E06F0007008EE0038
:1004C200EA0A690884002D308000E90A0030F00051
:1004D2006F06031D762A70086E06031D762A7008C1
:1004E2006D06031D762A6C08003A031D802A6908EE
:1004F2008316A2003B30A300FE20F0014D2C831294
:100502006F08FF3A031D8F2A6E08003A031D8F2AD7
:100512006D08003A031D8F2A6C08003A031D9B2ABE
:1005220069088316A2003D30A300FE2083126A08E8
:10053200F0004D2C83120030F4000030F500003042
:10054200F6007F30F7006C08F0006D08F1006E08CD
:10055200F2006F08F3001921013003180030F00097
:1005620070080319D02A6C08F0006D08F1006E08BB
:10057200F2006F08F3000030F4000030F500203084
:10058200F6008230F70069217008EC007108ED0076
:100592007208EE007308EF008316A1039B2A003055
:1005A200F4000030F5002030F6008230F7008312AC
:1005B2006C08F0006D08F1006E08F2006F08F3009D
:1005C20019210130031C0030F00070080319052BBB
:1005D2006C08F0006D08F1006E08F2006F08F3007D
:1005E200CD30F400CC30F5004C30F6007B30F70013
:1005F20069217008EC007108ED007208EE007308C2
:10060200EF008316A10AD02AFF3083126C05F8008E
:10061200FF306D05F9007F306E05FA0000306F057E
:10062200FB007808F4007908F5007A08F6007B08E8
:10063200F700F40DF50DF60DF70D741000306C0592
:10064200F00000306D05F10000306E05F200FF3061
:100652006F05F3007008EC007108ED007208EE00FF
:100662007308EF0074086C04F00075086D04F10063
:1006720076086E04F20077086F04F3007008EC004D
:100682007108ED007208EE007308EF007F306F0210
:10069200F0007008EB000130EF007008F4006C0805
:1006A200F0006D08F1006E08F2006F08F3007408A4
:1006B2000319622BF00DF10DF20DF30D7010FF3ED8
:1006C200592B83127008EC007108ED007208EE00DD
:1006D2007308EF006F08303EF0006908840070086C
:1006E2008000E90A803083162106F0008030013A4A
:1006F2007002031C852B8030063AF0008030210600
:100702007002031C852B8E2B8312690884002E3005
:100712008000E90A01308316A00006308312EB0044
:100722006B08003A0319F12BEF016C08F0006D0819
:10073200F1006E08F2006F08F300F00DF10DF20DFA
:10074200F30D7010F00DF10DF20DF30D70106C0839
:10075200F0076D0803186D0FF1076E0803186E0F8E
:10076200F2076F0803186F0FF3077008EC007108A7
:10077200ED007208EE007308EF006C08F0006D08DF
:10078200F1006E08F2006F08F300F00DF10DF20DAA
:10079200F30D70107008EC007108ED007208EE00A5
:1007A2007308EF006F08303EF0006908840070089B
:1007B2008000E90A83162008003A031DEE2BA103EC
:1007C2002108003A031DEE2B8312690884002E30A3
:1007D2008000E90A01308316A0008312EB03912BFB
:1007E200FF30690784000008303A031DFA2BE90341
:1007F200F12BFF306907840000082E3A031D022CFA
:10080200E90383162108003A0319482C8312690868
:10081200840065308000E90A803083162106F000EA
:100822008030003A70020318202C83126908840079
:100832002D308000E90A83162108003CA10021081E
:100842008312EB008030093AF000803083162106D3
:1008520070020318392C0A30F40083126B08F0007E
:10086200CA213030F0076908840070088000E90A64
:1008720083120A30F4006B08F000CA217808F000F5
:100882003030F0076908840070088000E90A83129A
:0A089200690884008001F0010800ED
:10089C00831603131208013EF000F1010318F10A4C
:1008AC0083126508F400F50194200630F2007008FC
:1008BC00F4007108F50072080319692CF50CF40C9E
:1008CC00F513FF3E622C0430F1007408F00071083F
:1008DC000319742CF00D7010FF3E6E2C3030700527
:1008EC00F3007408F0007508F100F10CF00CF11332
:1008FC00F10CF00CF113700895000F30970573088C
:04090C009704080044
:10091000831203139F01C0309F043A09F00070084E
:1009200083169F051F179F1783126508F000F00DAF
:100930007010F00D7010F00D701070089F041F14EF
:100940001B221F151F1DA62C0000A22C1F101E0805
:10095000F100F00183161E08F0040030F1040800D5
:10096000831203137008F8007108F000F101F2011E
:10097000F301FB01FC019630F300FA017008F1006D
:0C0980007808F000F801F201BF20080028
:10098C00D82C803083120313E500EB2CC030E5002B
:10099C00EB2C9430E500EB2CD430E500EB2C8030C4
:1009AC00E500EB2C831203136508013A0319C72CDD
:1009BC006508023A0319CC2C6508033A0319CF2CAD
:1009CC006508043A0319D22CD52C6603F00065088F
:1009DC00F0077008E50070088316A400262052105A
:1009EC00E80168086707840000080319062D6808E9
:1009FC006707840000088316A200F520E80AF72C8C
:040A0C005214080078
:100A1000831603138612061206108610061186111D
:100A200083128612061286110611861006100A20FD
:100A30000A200A20861406148616172086120A2019
:100A40008616172086120A208616172086120A207C
:100A500006108616172086120A2086161720861280
:100A6000861086158616172086120A20861106140F
:100A700086161720861206108616172086120A2060
:100A800086161720861206148616172086120A204C
:100A9000061086161720861286150615861406146B
:0C0AA0008616172086120A205214080047
:100AAC00EE208A110A128000840AD00A0319D10A96
:080ABC00F003031D562D080094
:100AC400FF3083120313D300FF30D400FF30D5006E
:100AD400FF309F01C0309F043A09F000700883166C
:0C0AE4009F051F179F1783121F140800A6
:100AF0008A2D803083120313E5009D2DC030E50060
:100B00009D2D9430E5009D2DD430E5009D2D803045
:100B1000E5009D2D831203136508013A0319792D11
:100B20006508023A03197E2D6508033A0319812DE1
:100B30006508043A0319842D872D6603F0006508C3
:100B4000F0077008E500521470088316A4002620F0
:0E0B5000521067088316A400262052140800D5
:100B5E00802683160313051407118601880183125C
:100B6E008701622508250C308316A400262001304B
:100B7E008316A40026200130E5000130E600213066
:100B8E00E700C6240230E5000130E6002B30E70016
:100B9E00C6241530FB004B30FC00BE30FD00FD0BB3
:100BAE00D62DFC0BD62DFB0BD62D00000130831657
:100BBE00A40026200130E5000130E6004130E700B8
:100BCE00C624121492106330831692002B22232215
:100BDE007F30E5004E24E5018824B0247008CA0059
:100BEE007108CB007208CC007308CD004A08E500EE
:100BFE004B08E6004C08E7004D08E8005630E900C7
:100C0E003122023083120313E5000930E60027304B
:100C1E00E70078250230E5000A30E6004E30E700A6
:100C2E00C6240230E5000130E6005630E700C62447
:100C3E000630FB001330FC00AD30FD00FD0B252E01
:100C4E00FC0B252EFB0B252E000000004A08F4009D
:100C5E004B08F5004C08F6004D08F7000030F00088
:100C6E008030F1007730F2008830F3001921013026
:100C7E0003180030F00070080319482EFF3088006A
:080C8E00492E8801F22D4A2EC7
:100D0000213084002F3083120313F0005030D000C4
:080D10000630D1005625080051
:100CA0004134753474346F346D3461347434693460
:040CB0006334003475
:100CB4004934723472346934673461347434693455
:060CC4006F346E340034B1
:080CCA004E3461344E34003455
:020CD2000F34DD
:040CD4003034003484
:080CD80049344E344634003467
:100CE0004D344F34493453345434553452344534EC
:020CF0000034CE
:080CF20000340034003400342A
:040CFA00633400342B
:02400E007A3BFB
:00000001FF
